:020000040800F2
:1000000000000220F9120008ED0F0008F50F0008AB
:10001000FD0F0008051000080D100008000000008A
:1000200000000000000000000000000015100008A3
:100030002310000800000000311000083F100008E5
:100040004913000849130008491300084913000820
:100050004913000849130008491300084B10000811
:100060004913000849130008491300084913000800
:1000700049130008491300084913000849130008F0
:100080004913000849130008591000080000000037
:1000900000000000000000000000000049130008FC
:1000A00049130008491300084913000849130008C0
:1000B0004913000849130008491300086D1000088F
:1000C000811000084913000849130008491300086B
:1000D00049130008491300084913000800000000F4
:1000E00049130008491300084913000800000000E4
:1000F000000000000000000000000000491300089C
:1001000000000000491300084913000849130008C3
:1001100000000000000000000000000000000000DF
:1001200095100008491300084913000849130008F6
:10013000491300080000000000000000000000005B
:10014000000000000000000000000000491300084B
:10015000491300084913000849130008491300080F
:1001600049130008491300080000000000000000C7
:10017000000000000000000000000000000000007F
:10018000000000004913000800000000000000000B
:0801900049130008491300089F
:1001A00010B5054C237833B9044B13B10448AFF3B1
:1001B00000800123237010BD5C00002000000000BF
:1001C000FC69000808B5034B1BB103490348AFF3B2
:1001D000008008BD0000000060000020FC690008ED
:1001E00001F0FF01102A2BDB10F0070F08D010F8E8
:1001F000013B013A8B422DD010F0070F42B3F6D1EC
:10020000F0B441EA012141EA014122F007047FF004
:1002100000070023F0E80256083C85EA010586EA5B
:10022000010685FA47F5A3FA87F586FA47F6A5FA97
:1002300087F68EB9EED1F0BC01F0FF0102F00702A3
:1002400032B110F8013B013A83EA010313B1F8D14E
:100250000020704701387047002D06BF354603382F
:10026000073815F0010F07D1013015F4807F02BF68
:10027000013015F4C03F0130F0BC0138704700BFB9
:1002800053B94AB9002908BF00281CBF4FF0FF31FD
:100290004FF0FF3000F06AB9ADF1080C6DE904CE03
:1002A00000F006F8DDF804E0DDE9022304B0704751
:1002B0002DE9F047089D0C46002B4ED194468C4505
:1002C0008646B2FA82F262D94AB1C2F12003914065
:1002D00020FA03F30CFA02FC194300FA02FE4FEA7B
:1002E0001C471FFA8CF6B1FBF7F44FEA1E4307FBDD
:1002F000141143EA014304FB06F199420AD91CEBAD
:10030000030304F1FF3080F01281994240F20F8123
:10031000023C6344591A1FFA8EF3B1FBF7F007FB56
:10032000101143EA014300FB06F69E420AD91CEB7A
:10033000030300F1FF3180F0FC809E4240F2F9801F
:10034000634402389B1B40EA044000211DB1D340A6
:100350000022C5E90032BDE8F0878B4205D90DB116
:10036000C5E9000100210846F5E7B3FA83F1002949
:1003700046D1A34202D39042C0F0F080861A64EBCB
:1003800003030120002DE6D0C5E90063E3E7002A5E
:1003900040F09080A1EB0C044FEA1C481FFA8CF748
:1003A0000121B4FBF8F64FEA1E4308FB164443EA6A
:1003B000044307FB06F0984208D91CEB030306F13F
:1003C000FF3402D2984200F2CD8026461C1A1FFA52
:1003D0008EF3B4FBF8F008FB104443EA044300FB3F
:1003E00007F79F4208D91CEB030300F1FF3402D248
:1003F0009F4200F2B0802046DB1B40EA0640A5E7A2
:10040000C1F120068B4022FA06F71F4320FA06FCB2
:1004100004FA01F343EA0C03F44000FA01F8380C43
:100420004FEA1349B4FBF0FE1FFA87FC00FB1E44A1
:1004300049EA04440EFB0CF9A14502FA01F20AD97B
:100440003C190EF1FF3A80F08480A14540F2818092
:10045000AEF1020E3C44A4EB09041FFA83F9B4FB8D
:10046000F0F300FB134449EA044403FB0CFCA445ED
:1004700007D93C1903F1FF3067D2A44565D9023B87
:100480003C4443EA0E40A0FB0293A4EB0C049C42C4
:10049000CE469C4651D34ED055B1B8EB0E0364EB1B
:1004A0000C0404FA06F6CB401E43CC40C5E90064B8
:1004B000002150E7C2F1200320FA03F10CFA02FCFC
:1004C00024FA03F394400C434FEA1C4800FA02FE5E
:1004D0001FFA8CF7B3FBF8F008FB1031230C43EA4A
:1004E000014300FB07F1994208D91CEB030300F11B
:1004F000FF362CD299422AD9023863445B1AA4B23F
:10050000B3FBF8F108FB113344EA034401FB07F3A2
:10051000A34208D91CEB040401F1FF3613D2A34215
:1005200011D902396444E41A41EA004139E704462A
:10053000F0E6084606E7C845AED2B9EB020E63EB1B
:10054000070C0138A8E73146EDE7034699E7304646
:10055000D4E7D6467FE7634402384DE70646234694
:1005600008460FE7023E634430E700BF704700BF14
:1005700080B584B000AF3B4600221A605A609A6092
:10058000DA60214B214A1A601F4B00225A601E4B31
:1005900000229A601C4B00221A611B4B01221A7622
:1005A000194B002283F82020174B0022DA62164BE9
:1005B000174A9A62144B0022DA60134B0122DA6167
:1005C000114B012283F830200F4B01225A610E4853
:1005D00000F052FF0346002B01D000F09FFA0023E9
:1005E0003B6001237B600023BB603B461946064805
:1005F00001F0AEF90346002B01D000F08FFA00BFE6
:100600001037BD4680BD00BF7800002000200140AB
:100610000100000F80B58AB000AF786007F11403C5
:1006200000221A605A609A60DA601A617B681B685F
:10063000334A934260D100233B61324B5B6C314AB9
:1006400043F4807353642F4B5B6C03F480733B6102
:100650003B690023FB602B4B1B6B2A4A43F00103D1
:100660001363284B1B6B03F00103FB60FB68012342
:100670007B610323BB610023FB6107F1140319466F
:10068000214802F0D1F8214B214A1A601F4B002269
:100690005A601E4B00229A601C4B0022DA601B4BF2
:1006A0004FF480621A61194B4FF400625A61174B84
:1006B0004FF400529A61154B4FF48072DA61134B7C
:1006C0004FF400321A62114B00225A620F4801F0B7
:1006D0000BFD0346002B01D000F020FA7B680B4A8B
:1006E0009A630A4A7B68936300220021122001F07A
:1006F000C4FC122001F0DDFC00BF2837BD4680BDE0
:10070000002001400038024000000240C0000020EC
:100710001064024080B582B000AF00237B600C4BB8
:100720001B6B0B4A43F480031363094B1B6B03F4ED
:1007300080037B607B6800220021382001F09DFC53
:10074000382001F0B6FC00BF0837BD4680BD00BFB1
:100750000038024080B588B000AF07F10C030022DA
:100760001A605A609A60DA601A610023BB60194B04
:100770001B6B184A43F001031363164B1B6B03F00A
:100780000103BB60BB6800237B60124B1B6B114AEB
:1007900043F0020313630F4B1B6B03F002037B60F8
:1007A0007B680223FB604FF404133B6101237B61F0
:1007B00007F10C031946084802F036F80022002120
:1007C000072001F05AFC072001F073FC00BF20371E
:1007D000BD4680BD003802400000024080B500AF39
:1007E000124B134A1A60114B124A5A600F4B0022E7
:1007F0009A600E4B0022DA600C4B4FF480421A6173
:100800000A4B00225A61094B00229A61074B0022D1
:10081000DA61064B00221A62044802F0A1F903468D
:10082000002B01D000F07AF900BF80BD200100202C
:1008300000540040A086010080B58AB000AF786007
:1008400007F1140300221A605A609A60DA601A6194
:100850007B681B68214A93423BD100233B61204BBC
:100860001B6B1F4A43F0020313631D4B1B6B03F00A
:1008700002033B613B69C0237B611223BB610123FF
:10088000FB6103233B6204237B6207F114031946D7
:10089000144801F0C9FF0023FB60114B1B6C104A88
:1008A00043F4001313640E4B1B6C03F40013FB6042
:1008B000FB68002200211F2001F0DFFB1F2001F058
:1008C000F8FB00220021202001F0D7FB202001F0BE
:1008D000F0FB00BF2837BD4680BD00BF005400407C
:1008E000003802400004024080B400AFBFF34F8FD5
:1008F00000BF064BDB6803F4E0620449044B13437A
:10090000CB60BFF34F8F00BF00BFFDE700ED00E0FD
:100910000400FA0580B500AF00F018FD00F086F87D
:10092000FFF718FFFFF7F6FEFFF722FE00F004FCCA
:10093000FFF754FF01221249124800F0F1FE002196
:10094000114804F037FF00F029F900F021F80C4BB2
:100950001B684FF47A7203FB02F20B4B19680B4BC6
:10096000A3FB0203D21A52081344DB0A4B6300F0C4
:100970000FF84FF4FA7000F05BFD00BFE7E700BF2F
:1009800074010020780000209C0500200101100067
:1009900080B582B002AF002000F06AF91C4B1B78D2
:1009A000002B12D11B4B1B681B4A14211B4805F05E
:1009B00071FB0A210A2000F0A7FA194B01220092CC
:1009C0000ECB164800F07AFA1CE0124B1B684FF46D
:1009D0007A7203FB02F2134BA3FB0213D21A5208E2
:1009E0001344DB0A104A14210C4805F053FB0A217A
:1009F0000A2000F089FA0A4B012200920ECB074828
:100A000000F05CFA00F04CF900BFBD4680BD00BFAD
:100A10007801002074010020146A00087C01002085
:100A20008877000801011000206A000880B594B0A2
:100A300000AF07F1200330220021184605F05EFBCD
:100A400007F10C0300221A605A609A60DA601A619A
:100A50000023BB60224B1B6C214A43F0805313647C
:100A60001F4B1B6C03F08053BB60BB6800237B6093
:100A70001C4B1B681B4A43F440431360194B1B6813
:100A800003F440437B607B6802233B620123FB62EB
:100A900010233B630023BB6307F12003184604F0D7
:100AA000F5F90346002B01D000F038F80F23FB6066
:100AB00000233B6100237B610023BB610023FB61BA
:100AC00007F10C030021184604F058FC0346002BE4
:100AD00001D000F023F800BF5037BD4680BD00BFF5
:100AE000003802400070004080B483B000AF03467D
:100AF000FB80FB88022B09D1074B1B78002B0CBF16
:100B000001230023DBB21A46034B1A7000BF0C37D7
:100B1000BD465DF8047B70477801002080B500AFCA
:100B200072B600BFFFF7E0FE80B400AF00BFBD4665
:100B30005DF8047B7047000080B586B004AF0346C3
:100B4000FB714FF0FF33029301230193FB1D0093D0
:100B5000012300223C21034802F05CF900BF083762
:100B6000BD4680BD2001002080B586B004AF78600E
:100B700039603B689BB24FF0FF32029201937B6871
:100B80000093012340223C21034802F043F900BFB7
:100B90000837BD4680BD00BF2001002080B500AFF2
:100BA000FFF7C2FF642000F043FC002000F0D8F9FA
:100BB0002020FFF7C1FF0020FFF7BEFFB020FFF7A6
:100BC000BBFFC820FFF7B8FF0020FFF7B5FF1020DC
:100BD000FFF7B2FF4020FFF7AFFFFF2000F0ACF9B6
:100BE000A120FFF7A9FFA620FFF7A6FFA820FFF787
:100BF000A3FF3F20FFF7A0FFA420FFF79DFFD32016
:100C0000FFF79AFF0020FFF797FFD520FFF794FF2B
:100C1000F020FFF791FFD920FFF78EFF2220FFF78A
:100C20008BFFDA20FFF788FF1220FFF785FFDB201C
:100C3000FFF782FF2020FFF77FFF8D20FFF77CFF6B
:100C40001420FFF779FF012000F08AF9002000F05E
:100C50000FF800F025F8054B00221A80034B002204
:100C60005A80024B01221A7100BF80BD90050020FE
:100C700080B582B000AF0346FB71FB79002B01D138
:100C8000002300E0FF234FF480621946034805F07B
:100C900035FA00BF0837BD4680BD00BF9001002077
:100CA00080B582B000AF0023FB7116E0FB79503BAA
:100CB000DBB21846FFF740FF0020FFF73DFF102092
:100CC000FFF73AFFFB79DB01084A134480211846FD
:100CD000FFF74AFFFB790133FB71FB79072BE5D95D
:100CE00000BF00BF0837BD4680BD00BF9001002097
:100CF00080B483B000AF0346FB710B46BB71134653
:100D00007B7197F90730002B3DDBBB793F2B3AD83D
:100D10007B79012B1AD1FA79BB79DB08D8B203466B
:100D2000DB0113441B4AD35C5AB2BB7903F00703BF
:100D3000012101FA03F35BB2134359B2FA79034676
:100D4000DB011344C9B2134AD1541DE0FA79BB79CF
:100D5000DB08D8B20346DB0113440E4AD35C5AB217
:100D6000BB7903F00703012101FA03F35BB2DB4314
:100D70005BB2134059B2FA790346DB011344C9B29E
:100D8000044AD15400E000BF0C37BD465DF8047B37
:100D9000704700BF9001002090B589B000AF0446B5
:100DA000384680E80E002346FB73FB7B1F2B02D9DD
:100DB000FB7B7E2B01D9002379E0BB68002B05D09B
:100DC000BA68FB7B203B13441B7800E03B78FB7543
:100DD000394B1B881A46FB7D1344802B06DC364BAF
:100DE0005B881A467B781344402B01DD00235EE0CC
:100DF0000023FB614DE07A68FB7B203B797801FBA7
:100E000003F31946FB690B445B0013441B883B61E9
:100E10000023BB6136E03A69BB6902FA03F303F4CD
:100E20000043002B13D0244B1B88DAB2BB69DBB222
:100E30001344D8B2204B5B88DAB2FB69DBB21344AF
:100E4000DBB297F830201946FFF752FF17E01A4B34
:100E50001B88DAB2BB69DBB21344D8B2164B5B888D
:100E6000DAB2FB69DBB21344D9B297F83030002B09
:100E70000CBF01230023DBB21A46FFF739FFBB6921
:100E80000133BB61FB7DBA699A42C4D3FB6901336C
:100E9000FB617B781A46FB699342ACD3064B1A88F8
:100EA000FB7D9BB213449AB2034B1A80FB7B18461E
:100EB0002437BD4690BD00BF9005002080B586B0A8
:100EC00002AFF860384680E80E0013E0FB6818783F
:100ED0003B7E00933B460ECBFFF75EFF03461A4670
:100EE000FB681B789A4202D0FB681B7808E0FB681D
:100EF0000133FB60FB681B78002BE7D1FB681B7894
:100F000018461037BD4680BD80B483B000AF03469D
:100F10000A46FB711346BB71FB799AB2054B1A80E6
:100F2000BB799AB2034B5A8000BF0C37BD465DF8BF
:100F3000047B70479005002080B584B000AF034665
:100F4000FB718123FB73FB7B1846FFF7F5FDFB79F3
:100F50001846FFF7F1FD00BF1037BD4680BD000009
:100F600080B584B000AF0346FB71FB79002B05D040
:100F7000AF23FB73084B01225A7104E0AE23FB73CD
:100F8000054B00225A71FB7B1846FFF7D5FD00BFC9
:100F90001037BD4680BD00BF9005002080B483B0EF
:100FA00000AF00237B60104B5B6C0F4A43F480431F
:100FB00053640D4B5B6C03F480437B607B680023C0
:100FC0003B60094B1B6C084A43F080531364064B8B
:100FD0001B6C03F080533B603B6800BF0C37BD4681
:100FE0005DF8047B704700BF0038024080B400AF5A
:100FF00000BFFDE780B400AF00BFFDE780B400AFE5
:1010000000BFFDE780B400AF00BFFDE780B400AFD4
:1010100000BFFDE780B400AF00BFBD465DF8047BB4
:10102000704780B400AF00BFBD465DF8047B7047D9
:1010300080B400AF00BFBD465DF8047B704780B54B
:1010400000AF00F0D5F900BF80BD80B500AF022031
:1010500001F06EFD00BF80BD80B500AF024800F01A
:101060004EFA00BF80BD00BF7800002080B500AF01
:10107000024801F0C9FF00BF80BD00BF2001002071
:1010800080B500AF024802F012F900BF80BD00BF7A
:101090002001002080B500AF024801F04DF900BFEB
:1010A00080BD00BFC000002080B586B000AF786072
:1010B000144A154BD31A7B617B693B61134B1B6848
:1010C000002B02D1114B124A1A60104B1A687B6830
:1010D00013443A699A4207D205F018F803460C22E5
:1010E0001A604FF0FF3309E0084B1B68FB60074BA9
:1010F0001A687B681344054A1360FB681846183762
:10110000BD4680BD000002200004000098050020BC
:101110003007002080B400AF064BD3F88830054A72
:1011200043F47003C2F8883000BFBD465DF8047B0D
:10113000704700BF00ED00E080B592B000AF07F14E
:10114000400300221A605A6007F1240300221A604B
:101150005A609A60DA601A615A619A613B1D2022D6
:101160000021184604F0CAFF334B344A1A60324B50
:1011700000225A60304B00229A602F4B4FF47A7253
:10118000DA602D4B00221A612B4B00225A612A4B48
:1011900000229A61284804F0BDFA0346002B01D0D2
:1011A000FFF7BCFC00233B6400237B6407F1400392
:1011B0001946214804F0AEFE0346002B01D0FFF78C
:1011C000ADFC60237B620023BB620023FB62002333
:1011D0003B6300237B630023BB630023FB6307F1B6
:1011E000240300221946144804F094FB0346002B04
:1011F00001D0FFF793FC00237B600023BB6000233A
:10120000FB6000233B6100237B614FF40053BB6113
:1012100000233B623B1D1946074804F0E9FE0346E4
:10122000002B01D0FFF77AFC034800F02BF800BF39
:101230004837BD4680BD00BF9C050020000001402E
:1012400080B485B000AF78607B681B680B4A93421E
:101250000DD10023FB600A4B5B6C094A43F001038C
:101260005364074B5B6C03F00103FB60FB6800BF3A
:101270001437BD465DF8047B704700BF0000014095
:101280000038024080B588B000AF786007F10C03E9
:1012900000221A605A609A60DA601A617B681B68E3
:1012A000124A93421ED10023BB60114B1B6B104AA4
:1012B00043F0010313630E4B1B6B03F00103BB6090
:1012C000BB684FF48073FB6002233B6100237B61AA
:1012D0000023BB610123FB6107F10C03194605489C
:1012E00001F0A2FA00BF2037BD4680BD00000140DA
:1012F0000038024000000240DFF834D0FFF70AFF58
:101300000C480D490D4A002302E0D458C450043360
:10131000C4188C42F9D30A4A0A4C002301E0136036
:101320000432A242FBD304F0F7FEFFF7F3FA704752
:1013300000000220000000205C000020F877000878
:101340005C00002030070020FEE7000080B500AF01
:101350000E4B1B680D4A43F4007313600B4B1B6864
:101360000A4A43F480631360084B1B68074A43F43E
:1013700080731360032000F075FE0F2000F008F862
:10138000FFF70CFE0023184680BD00BF003C024062
:1013900080B582B000AF7860124B1A68124B1B7890
:1013A00019464FF47A73B3FBF1F3B2FBF3F318462B
:1013B00000F08DFE0346002B01D001230EE07B6878
:1013C0000F2B0AD8002279684FF0FF3000F055FE4D
:1013D000064A7B681360002300E0012318460837A3
:1013E000BD4680BD00000020080000200400002051
:1013F00080B400AF064B1B781A46064B1B6813449B
:10140000044A136000BFBD465DF8047B704700BF0F
:1014100008000020E405002080B400AF034B1B68E7
:101420001846BD465DF8047B704700BFE405002008
:1014300080B584B000AF7860FFF7EEFFB8607B68DE
:10144000FB60FB68B3F1FF3F05D00A4B1B781A46DF
:10145000FB681344FB6000BFFFF7DEFF0246BB687A
:10146000D31AFA689A42F7D800BF00BF1037BD46BA
:1014700080BD00BF0800002080B584B000AF786058
:101480000023FB737B68002B01D1012333E07B68D1
:101490001B6C002B09D17868FFF7BCF87B68002231
:1014A0005A647B68002283F83C207B681B6C03F045
:1014B0001003002B18D17B681B6C23F4885323F096
:1014C000020343F002027B681A64786800F072FB42
:1014D0007B6800225A647B681B6C23F0030343F093
:1014E00001027B681A6401E00123FB737B68002220
:1014F00083F83C20FB7B18461037BD4680BD80B585
:1015000086B000AF786000237B6100233B617B687D
:101510001B681B68FB607B681B685B68BB60FB68C3
:1015200003F002037B61BB6803F020033B617B692E
:10153000002B49D03B69002B46D07B681B6C03F025
:101540001003002B05D17B681B6C43F400727B6891
:101550001A647B681B689B6803F04053002B2BD1F7
:101560007B681B7E002B27D17B681B68DB6A03F43A
:101570007003002B06D07B681B689B6803F48063B4
:10158000002B19D17B681B685A687B681B6822F0A6
:1015900020025A607B681B6C23F480727B681A649B
:1015A0007B681B6C03F48053002B05D17B681B6C9C
:1015B00043F001027B681A64786800F0A1F97B6847
:1015C0001B686FF012021A60FB6803F004037B6172
:1015D000BB6803F080033B617B69002B57D03B69FC
:1015E000002B54D07B681B6C03F01003002B05D13B
:1015F0007B681B6C43F400527B681A647B681B6831
:101600009B6803F44013002B39D17B681B689B6BEC
:1016100003F44013002B06D07B681B689B6803F41F
:101620008063002B2BD17B681B685B6803F48063AD
:10163000002B24D17B681B689B6803F04053002B70
:101640001DD17B681B7E002B19D17B681B685A68F3
:101650007B681B6822F080025A607B681B6C23F455
:1016600080527B681A647B681B6C03F48073002BC8
:1016700005D17B681B6C43F001027B681A647868B3
:1016800000F016FC7B681B686FF00C021A60FB68A8
:1016900003F001037B61BB6803F040033B617B699E
:1016A000002B17D03B69002B14D07B681B681B688C
:1016B00003F00103012B0DD17B681B6C43F48032D6
:1016C0007B681A64786800F02FF97B681B686FF0FC
:1016D00001021A60FB6803F020037B61BB6803F022
:1016E00080633B617B69002B15D03B69002B12D0D6
:1016F0007B685B6C43F002027B685A647B681B6802
:101700006FF020021A60786800F018F97B681B6897
:101710006FF020021A6000BF1837BD4680BD000080
:1017200080B586B000AFF860B9607A6000233B6195
:10173000FB6893F83C30012B01D10223CEE0FB681B
:10174000012283F83C20FB681B689B6803F00103BF
:10175000012B18D0FB681B689A68FB681B6842F075
:1017600001029A605F4B1B685F4AA2FB03239A0C3D
:1017700013465B0013443B6102E03B69013B3B6164
:101780003B69002BF9D1FB681B689B6803F48073ED
:10179000B3F5807F07D1FB681B689A68FB681B68FC
:1017A00022F480729A60FB681B689B6803F0010357
:1017B000012B40F08680FB681B6C23F4E06323F070
:1017C000010343F48072FB681A64FB681B685B6862
:1017D00003F48063002B07D0FB681B6C23F4405399
:1017E00043F48052FB681A64FB681B6C03F480535B
:1017F000B3F5805F06D1FB685B6C23F00602FB68E3
:101800005A6402E0FB6800225A64FB68002283F8F5
:101810003C20364B7B61FB689B6B354ADA63FB6887
:101820009B6B344A1A64FB689B6B334ADA64FB682F
:101830001B686FF022021A60FB681B685A68FB681D
:101840001B6842F080625A60FB681B689A68FB68FC
:101850001B6842F480729A60FB68986BFB681B6897
:101860004C331946BA687B6800F0ECFC7B695B6816
:1018700003F01F03002B0FD1FB681B689B6803F06C
:101880004053002B29D1FB681B689A68FB681B68D2
:1018900042F080429A6020E0FB681B68174A93423E
:1018A0001BD1FB681B689B6803F04053002B14D1CD
:1018B000FB681B689A68FB681B6842F080429A606C
:1018C0000BE0FB681B6C43F01002FB681A64FB68BA
:1018D0005B6C43F00102FB685A640023184618371A
:1018E000BD4680BD0000002083DE1B430023014075
:1018F000AD1D0008671E0008831E0008002001407F
:1019000080B483B000AF786000BF0C37BD465DF88F
:10191000047B704780B483B000AF786000BF0C37A1
:10192000BD465DF8047B704780B483B000AF78603B
:1019300000BF0C37BD465DF8047B704780B483B0B0
:1019400000AF786000BF0C37BD465DF8047B704780
:1019500080B485B000AF786039600023BB607B68DD
:1019600093F83C30012B01D1022313E17B68012263
:1019700083F83C203B681B68092B25D97B681B68D2
:10198000D9683B681B689BB21A4613465B00134438
:101990001E3B072202FA03F3DA437B681B680A4006
:1019A000DA607B681B68D9683B689A683B681B688B
:1019B0009BB2184603465B0003441E3B9A407B687B
:1019C0001B680A43DA6022E07B681B6819693B6880
:1019D0001B689BB21A4613465B001344072202FAA7
:1019E00003F3DA437B681B680A401A617B681B6853
:1019F00019693B689A683B681B689BB218460346A6
:101A00005B0003449A407B681B680A431A613B6889
:101A10005B68062B24D87B681B68596B3B685A6847
:101A200013469B001344053B1F2202FA03F3DA43DB
:101A30007B681B680A405A637B681B68596B3B686C
:101A40001B689BB218463B685A6813469B001344B8
:101A5000053B00FA03F27B681B680A435A634CE0BB
:101A60003B685B680C2B24D87B681B68196B3B6850
:101A70005A6813469B001344233B1F2202FA03F3C8
:101A8000DA437B681B680A401A637B681B68196B22
:101A90003B681B689BB218463B685A6813469B001C
:101AA0001344233B00FA03F27B681B680A431A6362
:101AB00023E07B681B68D96A3B685A6813469B0021
:101AC0001344413B1F2202FA03F3DA437B681B688D
:101AD0000A40DA627B681B68D96A3B681B689BB264
:101AE00018463B685A6813469B001344413B00FA72
:101AF00003F27B681B680A43DA62294BFB607B6850
:101B00001B68284A93420FD13B681B68122B0BD1EC
:101B1000FB685B6823F40002FB685A60FB685B6843
:101B200043F48002FB685A607B681B681D4A93423D
:101B30002BD13B681B681C4A934203D03B681B684F
:101B4000112B22D1FB685B6823F48002FB685A608A
:101B5000FB685B6843F40002FB685A603B681B68E3
:101B6000114A934211D1114B1B68114AA2FB032366
:101B70009A0C13469B0013445B00BB6002E0BB68F9
:101B8000013BBB60BB68002BF9D17B68002283F866
:101B90003C20002318461437BD465DF8047B70478F
:101BA000002301400020014012000010000000202E
:101BB00083DE1B4380B485B000AF7860794BFB6057
:101BC000FB685B6823F44032FB685A60FB685A6824
:101BD0007B685B681A43FB685A607B681B685A68BD
:101BE0007B681B6822F480725A607B681B685968A6
:101BF0007B681B691A027B681B680A435A607B6812
:101C00001B685A687B681B6822F040725A607B68C8
:101C10001B6859687B689A687B681B680A435A602E
:101C20007B681B689A687B681B6822F400629A6074
:101C30007B681B6899687B68DA687B681B680A4365
:101C40009A607B689B6A584A934222D07B681B68E3
:101C50009A687B681B6822F070629A607B681B68D8
:101C600099687B689A6A7B681B680A439A607B68FC
:101C70001B689A687B681B6822F040529A607B68F8
:101C80001B6899687B68DA6A7B681B680A439A60FC
:101C90000FE07B681B689A687B681B6822F07062A3
:101CA0009A607B681B689A687B681B6822F04052C8
:101CB0009A607B681B689A687B681B6822F0020246
:101CC0009A607B681B6899687B681B7E5A007B68FA
:101CD0001B680A439A607B6893F82030002B1BD066
:101CE0007B681B685A687B681B6842F400625A6014
:101CF0007B681B685A687B681B6822F460425A60E4
:101D00007B681B6859687B685B6A013B5A037B6888
:101D10001B680A435A6007E07B681B685A687B6847
:101D20001B6822F400625A607B681B68DA6A7B6871
:101D30001B6822F47002DA627B681B68D96A7B68D0
:101D4000DB69013B1A057B681B680A43DA627B6822
:101D50001B689A687B681B6822F400729A607B6833
:101D60001B6899687B6893F830305A027B681B685F
:101D70000A439A607B681B689A687B681B6822F438
:101D800080629A607B681B6899687B685B699A02CD
:101D90007B681B680A439A6000BF1437BD465DF834
:101DA000047B7047002301400100000F80B584B020
:101DB00000AF78607B689B6BFB60FB681B6C03F07B
:101DC0005003002B3CD1FB681B6C43F40072FB6892
:101DD0001A64FB681B689B6803F04053002B2BD1EF
:101DE000FB681B7E002B27D1FB681B68DB6A03F4B2
:101DF0007003002B06D0FB681B689B6803F48063AC
:101E0000002B19D1FB681B685A68FB681B6822F01D
:101E100020025A60FB681B6C23F48072FB681A6412
:101E2000FB681B6C03F48053002B05D1FB681B6C13
:101E300043F00102FB681A64F868FFF761FD0EE0E9
:101E4000FB681B6C03F01003002B03D0F868FFF74E
:101E500075FD04E0FB689B6BDB6C7868984700BFFE
:101E60001037BD4680BD80B584B000AF78607B6818
:101E70009B6BFB60F868FFF74DFD00BF1037BD4658
:101E800080BD80B584B000AF78607B689B6BFB60E1
:101E9000FB6840221A64FB685B6C43F00402FB6839
:101EA0005A64F868FFF74AFD00BF1037BD4680BD91
:101EB00080B483B000AF786000BF0C37BD465DF8DA
:101EC000047B704780B485B000AF78607B6803F016
:101ED0000703FB600C4BDB68BB60BA684FF6FF037F
:101EE0001340BB60FB681A02BB68134343F0BF6337
:101EF00043F40033BB60044ABB68D36000BF1437AF
:101F0000BD465DF8047B704700ED00E080B400AF93
:101F1000044BDB681B0A03F007031846BD465DF857
:101F2000047B704700ED00E080B483B000AF03464F
:101F3000FB7197F90730002B0BDBFB7903F01F02D5
:101F4000074997F907305B09012000FA02F241F8CE
:101F5000232000BF0C37BD465DF8047B704700BFEF
:101F600000E100E080B483B000AF03463960FB714C
:101F700097F90730002B0ADB3B68DAB20C4997F976
:101F800007301201D2B20B4483F800230AE03B6809
:101F9000DAB20849FB7903F00F03043B1201D2B215
:101FA0000B441A7600BF0C37BD465DF8047B7047C2
:101FB00000E100E000ED00E080B489B000AFF8601F
:101FC000B9607A60FB6803F00703FB61FB69C3F14A
:101FD0000703042B28BF0423BB61FB690433062BD2
:101FE00002D9FB69033B00E000237B614FF0FF3225
:101FF000BB6902FA03F3DA43BB681A407B699A4073
:102000004FF0FF317B6901FA03F3D9437B680B4042
:10201000134318462437BD465DF8047B7047000023
:1020200080B582B000AF78607B68013BB3F1807F00
:1020300001D301230FE00A4A7B68013B53600F2163
:102040004FF0FF30FFF78EFF054B00229A60044BE4
:1020500007221A60002318460837BD4680BD00BF1E
:1020600010E000E080B582B000AF78607868FFF7DC
:1020700029FF00BF0837BD4680BD80B586B000AFE0
:102080000346B9607A60FB7300237B61FFF73EFF74
:1020900078617A68B9687869FFF78EFF024697F928
:1020A0000F3011461846FFF75DFF00BF1837BD46D9
:1020B00080BD80B582B000AF0346FB7197F9073051
:1020C0001846FFF731FF00BF0837BD4680BD80B519
:1020D00082B000AF78607868FFF7A2FF0346184629
:1020E0000837BD4680BD000080B586B000AF78607F
:1020F00000237B61FFF790F938617B68002B01D1E9
:10210000012399E07B68022283F835207B68002256
:1021100083F834207B681B681A687B681B6822F090
:1021200001021A600FE0FFF777F902463B69D31A04
:10213000052B08D97B6820225A657B68032283F827
:102140003520032378E07B681B681B6803F00103DC
:10215000002BE8D17B681B681B687B617A69384B70
:1021600013407B617B685A687B689B681A437B6875
:10217000DB681A437B681B691A437B685B691A43F7
:102180007B689B691A437B68DB691A437B681B6A1F
:1021900013437A6913437B617B685B6A042B07D125
:1021A0007B68DA6A7B681B6B13437A6913437B6134
:1021B0007B681B687A691A607B681B685B697B6156
:1021C0007B6923F007037B617B685B6A7A69134351
:1021D0007B617B685B6A042B17D17B689B6A7A6999
:1021E00013437B617B68DB6A002B0ED0786800F0BC
:1021F0009FFA0346002B08D07B6840225A657B6813
:10220000012283F83520012316E07B681B687A6978
:102210005A61786800F056FA0346FB607B68DB6D14
:102220003F229A40FB689A607B6800225A657B686F
:10223000012283F83520002318461837BD4680BD9B
:102240003F8010F080B586B000AFF860B9607A606A
:102250003B600023FB75FB689B6D3B61FB6893F85B
:102260003430012B01D1022340E0FB68012283F8C6
:102270003420FB6893F83530DBB2012B2FD1FB689B
:10228000022283F83520FB6800225A653B687A6891
:10229000B968F86800F0E8F9FB68DB6D3F229A4006
:1022A0003B699A60FB681B681A68FB681B6842F010
:1022B00016021A60FB681B6C002B07D0FB681B68BA
:1022C0001A68FB681B6842F008021A60FB681B680A
:1022D0001A68FB681B6842F001021A6005E0FB689F
:1022E000002283F834200223FB75FB7D1846183743
:1022F000BD4680BD80B483B000AF78607B6893F842
:102300003530DBB2022B04D07B6880225A65012372
:102310000CE07B68052283F835207B681B681A680F
:102320007B681B6822F001021A60002318460C37F4
:10233000BD465DF8047B704780B586B000AF78601D
:102340000023BB608E4B1B688E4AA2FB03239B0AB3
:102350007B617B689B6D3B613B691B68FB607B68B5
:10236000DB6D08229A40FB681340002B1AD07B6873
:102370001B681B6803F00403002B13D07B681B68E9
:102380001A687B681B6822F004021A607B68DB6DA8
:1023900008229A403B699A607B685B6D43F00102BA
:1023A0007B685A657B68DB6D01229A40FB681340AD
:1023B000002B12D07B681B685B6903F08003002B45
:1023C0000BD07B68DB6D01229A403B699A607B6889
:1023D0005B6D43F002027B685A657B68DB6D04220B
:1023E0009A40FB681340002B12D07B681B681B6867
:1023F00003F00203002B0BD07B68DB6D04229A40B4
:102400003B699A607B685B6D43F004027B685A65A8
:102410007B68DB6D10229A40FB681340002B43D091
:102420007B681B681B6803F00803002B3CD07B68AB
:10243000DB6D10229A403B699A607B681B681B68C1
:1024400003F48023002B18D07B681B681B6803F4FF
:102450000023002B08D17B681B6C002B24D07B68E9
:102460001B6C786898471FE07B689B6C002B1BD027
:102470007B689B6C7868984716E07B681B681B68D4
:1024800003F48073002B07D17B681B681A687B6894
:102490001B6822F008021A607B681B6C002B03D0BB
:1024A0007B681B6C786898477B68DB6D20229A40BC
:1024B000FB681340002B00F08F807B681B681B6853
:1024C00003F01003002B00F087807B68DB6D202277
:1024D0009A403B699A607B6893F83530DBB2052BF4
:1024E00036D17B681B681A687B681B6822F016026D
:1024F0001A607B681B685A697B681B6822F080023F
:102500005A617B681B6C002B03D17B689B6C002B92
:1025100007D07B681B681A687B681B6822F008027A
:102520001A607B68DB6D3F229A403B699A607B684A
:10253000012283F835207B68002283F834207B68F1
:102540001B6D002B7ED07B681B6D7868984779E007
:102550007B681B681B6803F48023002B1DD07B68FD
:102560001B681B6803F40023002B0DD17B685B6C98
:10257000002B31D07B685B6C786898472CE000BFFB
:1025800000000020B5814E1B7B68DB6B002B23D045
:102590007B68DB6B786898471EE07B681B681B686C
:1025A00003F48073002B0FD17B681B681A687B686B
:1025B0001B6822F010021A607B68012283F8352024
:1025C0007B68002283F834207B68DB6B002B03D010
:1025D0007B68DB6B786898477B685B6D002B32D03B
:1025E0007B685B6D03F00103002B22D07B68052222
:1025F00083F835207B681B681A687B681B6822F0AB
:1026000001021A60BB680133BB607A699A4207D342
:102610007B681B681B6803F00103002BF2D100E00C
:1026200000BF7B68012283F835207B68002283F895
:1026300034207B68DB6C002B05D07B68DB6C786812
:10264000984700E000BF1837BD4680BD80B483B016
:1026500000AF78607B6893F83530DBB218460C37F2
:10266000BD465DF8047B704780B485B000AFF8606C
:10267000B9607A603B60FB681B681A68FB681B687E
:1026800022F480221A60FB681B683A685A60FB6873
:102690009B68402B08D1FB681B687A689A60FB68CE
:1026A0001B68BA68DA6007E0FB681B68BA689A6062
:1026B000FB681B687A68DA6000BF1437BD465DF8B6
:1026C000047B704780B485B000AF78607B681B687E
:1026D000DBB2103B144AA2FB03231B09FB60134A25
:1026E000FB6813441B781A467B68DA65FB68032B8A
:1026F00009D97B681B6823F47F7323F003031A1D39
:102700007B689A6507E07B681B6823F47F7323F07E
:1027100003037A6893657B689B6D18461437BD4642
:102720005DF8047B704700BFABAAAAAAAC7700088B
:1027300080B485B000AF78600023FB737B689B6A30
:10274000BB607B689B69002B1FD1BB68032B56D8ED
:1027500001A252F823F000BF692700087B27000878
:1027600069270008FF2700087B68DB6A03F0807395
:10277000002B46D00123FB7343E07B68DB6AB3F197
:10278000C07F40D10123FB733DE07B689B69B3F5BB
:10279000005F21D1BB68032B37D801A252F823F088
:1027A000B1270008B7270008B1270008C92700088B
:1027B0000123FB7330E07B68DB6A03F08073002B3E
:1027C00025D00123FB7322E07B68DB6AB3F1C07F75
:1027D0001FD10123FB731CE0BB68022B03D9BB682C
:1027E000032B03D018E00123FB7315E07B68DB6A41
:1027F00003F08073002B0ED00123FB730BE000BFAE
:102800000AE000BF08E000BF06E000BF04E000BF30
:1028100002E000BF00E000BFFB7B18461437BD4656
:102820005DF8047B704700BF80B489B000AF78606A
:10283000396000237B6100233B610023BB610023DF
:10284000FB6159E10122FB6902FA03F37B613B68FA
:102850001B687A6913403B613A697B699A4240F090
:1028600048813B685B6803F00303012B05D03B689C
:102870005B6803F00303022B30D17B689B68BB616C
:10288000FB695B00032202FA03F3DB43BA691340DE
:10289000BB613B68DA68FB695B0002FA03F3BA6963
:1028A0001343BB617B68BA699A607B685B68BB61F4
:1028B0000122FB6902FA03F3DB43BA691340BB61EF
:1028C0003B685B681B0903F00102FB6902FA03F332
:1028D000BA691343BB617B68BA695A603B685B683D
:1028E00003F00303032B17D07B68DB68BB61FB6934
:1028F0005B00032202FA03F3DB43BA691340BB61B6
:102900003B689A68FB695B0002FA03F3BA691343F8
:10291000BB617B68BA69DA603B685B6803F00303FC
:10292000022B23D1FB69DA087B68083253F8223086
:10293000BB61FB6903F007039B000F2202FA03F35C
:10294000DB43BA691340BB613B681A69FB6903F05A
:1029500007039B0002FA03F3BA691343BB61FB69E7
:10296000DA087B680832B96943F822107B681B6873
:10297000BB61FB695B00032202FA03F3DB43BA6924
:102980001340BB613B685B6803F00302FB695B00BB
:1029900002FA03F3BA691343BB617B68BA691A6030
:1029A0003B685B6803F44033002B00F0A2800023F7
:1029B000FB60574B5B6C564A43F480435364544B63
:1029C0005B6C03F48043FB60FB68524AFB699B0825
:1029D000023352F82330BB61FB6903F003039B0011
:1029E0000F2202FA03F3DB43BA691340BB617B6831
:1029F000494A934219D07B68484A934213D07B6876
:102A0000474A93420DD07B68464A934207D07B6881
:102A1000454A934201D1042308E0072306E003233B
:102A200004E0022302E0012300E00023FA6902F03F
:102A3000030292009340BA691343BB613549FB69B5
:102A40009B080233BA6941F82320384B9B68BB616D
:102A50003B69DB43BA691340BB613B685B6803F4C5
:102A60008013002B03D0BA693B691343BB612F4A23
:102A7000BB6993602D4BDB68BB613B69DB43BA6983
:102A80001340BB613B685B6803F40013002B03D069
:102A9000BA693B691343BB61244ABB69D360234BCA
:102AA0005B68BB613B69DB43BA691340BB613B6850
:102AB0005B6803F40033002B03D0BA693B6913430E
:102AC000BB611A4ABB695360184B1B68BB613B6909
:102AD000DB43BA691340BB613B685B6803F4803336
:102AE000002B03D0BA693B691343BB610F4ABB6932
:102AF0001360FB690133FB61FB690F2B7FF6A2AE0C
:102B000000BF00BF2437BD465DF8047B704700BF9F
:102B1000003802400038014000000240000402403A
:102B200000080240000C024000100240003C01403E
:102B300080B582B000AF0346FB80084B5A69FB8822
:102B40001340002B06D0054AFB885361FB881846CA
:102B5000FDF7CAFF00BF0837BD4680BD003C0140FD
:102B600080B584B000AF78607B68002B01D1012371
:102B70002BE17B6893F83D30DBB2002B06D17B68FC
:102B8000002283F83C207868FDF756FE7B682422FB
:102B900083F83D207B681B681A687B681B6822F0FD
:102BA00001021A607B681B681A687B681B6842F424
:102BB00000421A607B681B681A687B681B6822F4F5
:102BC00000421A6002F092FDF8607B685B68814AFF
:102BD000934207D8FB68804A934294BF01230023A5
:102BE000DBB206E0FB687D4A934294BF01230023D9
:102BF000DBB2002B01D00123E7E0FB68784AA2FB9F
:102C000003239B0CBB607B681B685B6823F03F0160
:102C10007B681B68BA680A435A607B681B681B6A3A
:102C200023F03F017B685B686A4A934202D8BB6825
:102C3000013309E0BB684FF4967202FB03F3694A63
:102C4000A2FB03239B0901337A6812680B431362CA
:102C50007B681B68DB6923F44F4222F0FF027B682C
:102C60005B685C498B4219D8FB68591E7B685B68BE
:102C70005B00B1FBF3F3591C40F6FC730B40002BD7
:102C80000AD0FB68591E7B685B685B00B1FBF3F3FD
:102C90000133C3F30B0351E004234FE07B689B68CF
:102CA000002B11D1FB68581E7B6859680B465B00EE
:102CB0000B44B0FBF3F30133C3F30B03002B0CBF46
:102CC00001230023DBB212E0FB68581E7B685968C1
:102CD0000B469B000B4499000B44B0FBF3F301330C
:102CE000C3F30B03002B0CBF01230023DBB2002B2B
:102CF00001D0012322E07B689B68002B0ED1FB688A
:102D0000581E7B6859680B465B000B44B0FBF3F31D
:102D10000133C3F30B0343F400430FE0FB68581E79
:102D20007B6859680B469B000B4499000B44B0FB31
:102D3000F3F30133C3F30B0343F4404379680968A9
:102D40001343CB617B681B681B6823F0C0017B6861
:102D5000DA697B681B6A1A437B681B680A431A603E
:102D60007B681B689B6823F4034323F0FF037A68A6
:102D700011697A68D26811437A6812680B439360CC
:102D80007B681B68DB6823F0FF017B685A697B68FE
:102D90009B691A437B681B680A43DA607B681B687F
:102DA0001A687B681B6842F001021A607B68002287
:102DB0001A647B68202283F83D207B6800221A6316
:102DC0007B68002283F83E20002318461037BD465A
:102DD00080BD00BFA08601007F841E00FF083D006B
:102DE00083DE1B43D34D621080B483B000AF7860A4
:102DF0007B681B685B6903F08003802B03D17B68D1
:102E00001B6800221A6100BF0C37BD465DF8047BC9
:102E10007047000080B588B002AFF86008461146E0
:102E20001A4603467B810B463B811346FB80FEF727
:102E3000F3FA7861FB6893F83D30DBB2202B40F069
:102E4000D9807B690093192301226D49F86801F04C
:102E5000F7FD0346002B01D00223CCE0FB6893F87A
:102E60003C30012B01D10223C5E0FB68012283F82D
:102E70003C20FB681B681B6803F00103012B07D093
:102E8000FB681B681A68FB681B6842F001021A6045
:102E9000FB681B681A68FB681B6822F400621A60F2
:102EA000FB68212283F83D20FB68402283F83E2006
:102EB000FB6800221A64FB683A6A5A62FB68BA8CA3
:102EC0005A85FB685B8D9AB2FB681A85FB684D4A90
:102ED000DA62F8883A8979897B690193BB6A009341
:102EE0000346F86801F06EFC0346002B52D0012324
:102EF00081E07A69B96AF86801F0BCFE0346002BEC
:102F00000DD0FB681B6C042B07D1FB681B681A688B
:102F1000FB681B6842F400721A6001236BE0FB68D7
:102F20005B6A1A78FB681B681A61FB685B6A5A1C4B
:102F3000FB685A62FB681B8D013B9AB2FB681A85DD
:102F4000FB685B8D9BB2013B9AB2FB685A85FB68BC
:102F50001B685B6903F00403042B1BD1FB681B8D0A
:102F6000002B17D0FB685B6A1A78FB681B681A6134
:102F7000FB685B6A5A1CFB685A62FB681B8D013B4D
:102F80009AB2FB681A85FB685B8D9BB2013B9AB2D3
:102F9000FB685A85FB681B8D002BAAD17A69B96A38
:102FA000F86801F0AFFE0346002B0DD0FB681B6CE8
:102FB000042B07D1FB681B681A68FB681B6842F486
:102FC00000721A60012316E0FB681B681A68FB6830
:102FD0001B6842F400721A60FB68202283F83D20CF
:102FE000FB68002283F83E20FB68002283F83C2027
:102FF000002300E0022318461837BD4680BD00BFFD
:10300000020010000000FFFF80B588B000AF7860BC
:103010000023BB617B681B685B687B617B68DB6A44
:103020003B617B6893F83E30FB737B6893F83D30DF
:10303000BB73FB7B102B03D0FB7B402B40F0B1809C
:103040007B681B689B69BB617B681B685B69FB6174
:10305000FB6903F00103002B0DD13B69B3F52A0F87
:1030600003D03B69B3F12A4F01D1012300E00023D3
:10307000012B00F01481FB6903F00103002B0BD03E
:103080007B6903F40073002B06D0786801F0E3FE3F
:10309000786800F07AFD83E0FB6903F00803002BF9
:1030A00008D07B6903F40073002B03D0786800F02C
:1030B000F2FD75E0FB6903F00203002B08D07B6989
:1030C00003F40073002B03D0786800F00EFE67E075
:1030D000BB6903F00403002B36D07B681B685B6878
:1030E00003F40063B3F5006F00F0DB80FB6903F0CD
:1030F0008003002B0DD07B6903F48063002B08D084
:10310000FB6903F00403002B03D1786800F0D6F9C3
:1031100046E0FB6903F00403002B00F0C2807B69EA
:1031200003F40073002B00F0BC80BB7B212B03D188
:10313000786800F05FFAB4E0FB7B402B40F0B18090
:10314000786800F0CDFAACE07B681B685B6803F43C
:103150000063B3F5006F00F0A480FB6903F0400347
:10316000002B0DD07B6903F48063002B08D0FB6932
:1031700003F00403002B03D1786800F049FB0FE053
:10318000FB6903F00403002B00F08B807B6903F4E0
:103190000073002B00F08580786800F001FC80E06F
:1031A0007FE07B681B6C002B04D07B681B685B692D
:1031B000FB6107E07B681B689B69BB617B681B68E0
:1031C0005B69FB61FB6903F00203002B11D07B6993
:1031D00003F40073002B0CD07B681B6C002B03D016
:1031E0007B681B689B69BB61B969786800F0CCFF9C
:1031F0005AE0FB6903F01003002B08D07B6903F44D
:103200000073002B03D0786801F006F84CE0BB7B1C
:10321000212B02D0BB7B292B20D1FB6903F080033B
:10322000002B0DD07B6903F48063002B08D0FB6971
:1032300003F00403002B03D1786800F0E7FE32E0CE
:10324000FB6903F00403002B2DD07B6903F40073AA
:10325000002B28D0786800F016FF24E0FB6903F00B
:103260004003002B0DD07B6903F48063002B08D052
:10327000FB6903F00403002B03D1786800F024FFFE
:1032800012E0FB6903F00403002B0DD07B6903F40B
:103290000073002B08D0786800F054FF04E000BFF2
:1032A00002E000BF00E000BF2037BD4680BD80B512
:1032B0008AB000AF78607B681B685B693B627B68A3
:1032C0001B685B68FB6100237B627B6893F83E3080
:1032D000FB763B6A03F48073002B0DD0FB6903F48B
:1032E0008073002B08D07B6A43F001037B627B680C
:1032F0001B686FF480725A613B6A03F40073002B01
:103300000DD0FB6903F48073002B08D07B6A43F077
:1033100002037B627B681B686FF400725A613B6A30
:1033200003F48063002B3ED0FB6903F48073002B11
:1033300039D0FB7EBB767B685B8D9BB27B617B6803
:1033400093F83D30FB747B681B6BFB60BB7E202BCE
:1033500012D17B69002B0FD1FB7C212B08D0FB7C89
:10336000292B05D0FB7C282B06D1FB68212B03D110
:10337000786801F081F816E07B681B686FF4806262
:103380005A617B6A43F004037B62FB7E102B02D000
:10339000FB7E402B07D17B681B681A687B681B6823
:1033A00042F400721A603B6A03F40063002B0DD0F4
:1033B000FB6903F48073002B08D07B6A43F0080399
:1033C0007B627B681B686FF400625A617B6A002B2A
:1033D00008D07B681A6C7B6A1A437B681A64786829
:1033E00001F0BEF800BF2837BD4680BD80B483B071
:1033F00000AF786000BF0C37BD465DF8047B7047B6
:1034000080B483B000AF786000BF0C37BD465DF874
:10341000047B704780B483B000AF786000BF0C3786
:10342000BD465DF8047B704780B483B000AF786020
:1034300000BF0C37BD465DF8047B704780B483B095
:1034400000AF78600B46FB7013463B8000BF0C3723
:10345000BD465DF8047B704780B483B000AF7860F0
:1034600000BF0C37BD465DF8047B704780B483B065
:1034700000AF786000BF0C37BD465DF8047B704735
:1034800080B483B000AF786000BF0C37BD465DF8F4
:10349000047B704780B483B000AF786000BF0C3706
:1034A000BD465DF8047B704780B483B000AF7860A0
:1034B00000BF0C37BD465DF8047B704780B584B013
:1034C00000AF78607B6893F83D30FB737B6893F8BE
:1034D0003E30BB737B68DB6ABB607B681B8D002B57
:1034E00050D1FB7B212B4DD1BB68082B1DD0BB6875
:1034F000202B1AD0BB6813F5803F16D07B681B6861
:103500005A687B681B6822F4E0625A607B6811226B
:103510001A637B68002283F83E207B68202283F8B0
:103520003D207868FFF762FF60E07B681B685A689F
:103530007B681B6822F4E0625A607B681B681A682B
:103540007B681B6842F400721A607B6800221A6371
:103550007B68202283F83D207B6893F83E30DBB205
:10356000402B07D17B68002283F83E207868FFF764
:103570007DFF3BE07B68002283F83E207868FFF700
:1035800035FF33E0FB7B212B05D0BB7B402B2DD1BE
:10359000FB7B222B2AD17B685B8D9BB2002B08D151
:1035A0007B681B685A687B681B6822F480625A60DB
:1035B0001CE07B6893F83E30DBB2402B03D1786887
:1035C00000F08EF812E07B685B6A1A787B681B68F3
:1035D0001A617B685B6A5A1C7B685A627B685B8DE8
:1035E0009BB2013B9AB27B685A85FFE700BF103758
:1035F000BD4680BD80B584B000AF78607B68DB6A73
:10360000FB607B6893F83D30DBB2212B64D17B6893
:103610005B8D9BB2002B12D07B685B6A1A787B684B
:103620001B681A617B685B6A5A1C7B685A627B68FC
:103630005B8D9BB2013B9AB27B685A854CE0FB687C
:10364000082B1DD0FB68202B1AD0FB6813F5803F98
:1036500016D07B681B685A687B681B6822F4E0629E
:103660005A607B6811221A637B68002283F83E202F
:103670007B68202283F83D207868FFF7B7FE2BE0B7
:103680007B681B685A687B681B6822F4E0625A609A
:103690007B681B681A687B681B6842F400721A60BA
:1036A0007B6800221A637B68202283F83D207B68B8
:1036B00093F83E30DBB2402B07D17B68002283F8C1
:1036C0003E207868FFF7D2FE06E07B68002283F890
:1036D0003E207868FFF78AFE00BF1037BD4680BDE8
:1036E00080B584B000AF78607B6893F83D30FB73A1
:1036F0007B681B6D002B1DD17B68DB6C012B0BD114
:103700007B689B6CDAB27B681B681A617B681B6DF7
:103710009A1C7B681A6577E07B689B6C9BB21B12D6
:10372000DAB27B681B681A617B681B6D5A1C7B6868
:103730001A6569E07B681B6D012B0BD17B689B6C64
:10374000DAB27B681B681A617B681B6D5A1C7B6848
:103750001A6559E07B681B6D022B52D1FB7B222B33
:103760000DD17B681B681A687B681B6842F4807205
:103770001A607B681B6D5A1C7B681A6544E07B6885
:103780005B8D9BB2002B15D0FB7B212B12D17B686C
:103790005B6A1A787B681B681A617B685B6A5A1CD3
:1037A0007B685A627B685B8D9BB2013B9AB27B68F7
:1037B0005A8529E07B685B8D9BB2002B24D1FB7B73
:1037C000212B21D17B681B685A687B681B6822F417
:1037D000E0625A607B681B681A687B681B6842F469
:1037E00000721A607B6800221A637B68202283F8CB
:1037F0003D207B68002283F83E207868FFF736FE84
:1038000002E07868FFF7F0FA00BF1037BD4680BDD0
:1038100080B584B000AF78607B6893F83D30DBB250
:10382000222B40F0B9807B68DB6AFB607B685B8D94
:103830009BB2BB60BB68032B21D97B681B681A69EC
:103840007B685B6AD2B21A707B685B6A5A1C7B68C1
:103850005A627B685B8D9BB2013B9AB27B685A854A
:103860007B685B8D9BB2032B40F096807B681B6866
:103870005A687B681B6822F480625A608CE07B681F
:10388000DB6A022B7FD0BB68012B02D0BB68002B08
:1038900079D1786801F07EFA0346002B4CD17B6821
:1038A0001B681A687B681B6822F480621A607B6858
:1038B0001B685A687B681B6822F4E0625A607B6868
:1038C0001B681A697B685B6AD2B21A707B685B6A94
:1038D0005A1C7B685A627B685B8D9BB2013B9AB233
:1038E0007B685A857B68202283F83D207B6893F8AB
:1038F0003E30DBB2402B0AD17B68002283F83E20A9
:103900007B6800221A637868FFF7BAFD44E07B68A1
:10391000002283F83E20FB68082B02D0FB68202B96
:1039200003D17B6800221A6302E07B6812221A63CB
:103930007868FFF765FD2FE07B681B685A687B6835
:103940001B6822F4E0625A607B681B681A697B6816
:103950005B6AD2B21A707B685B6A5A1C7B685A62D7
:103960007B685B8D9BB2013B9AB27B685A857B6812
:10397000202283F83D207B68002283F83E2078686F
:10398000FFF788FD08E07B681B685A687B681B6846
:1039900022F480625A60FFE700BF1037BD4680BD49
:1039A00080B584B000AF78607B68DB6AFB607B68C1
:1039B0005B8D9BB2042B1BD17B681B685A687B68AC
:1039C0001B6822F480625A607B681B681A697B68F6
:1039D0005B6AD2B21A707B685B6A5A1C7B685A6257
:1039E0007B685B8D9BB2013B9AB27B685A85C8E0CD
:1039F0007B685B8D9BB2032B29D17B681B685A685F
:103A00007B681B6822F480625A60FB68042B0AD032
:103A1000FB68022B07D07B681B681A687B681B68F1
:103A200022F480621A607B681B681A697B685B6A93
:103A3000D2B21A707B685B6A5A1C7B685A627B68D8
:103A40005B8D9BB2013B9AB27B685A8599E07B689B
:103A50005B8D9BB2022B40F08180FB68012B02D072
:103A6000FB68102B08D17B681B681A687B681B6891
:103A700022F480621A6019E0FB68042B02D0FB6814
:103A8000022B08D17B681B681A687B681B6842F4AC
:103A900080621A600AE0FB68102B07D07B681B6805
:103AA0001A687B681B6842F400721A607B681B68A6
:103AB0001A697B685B6AD2B21A707B685B6A5A1CAF
:103AC0007B685A627B685B8D9BB2013B9AB27B68D4
:103AD0005A857B681B681A697B685B6AD2B21A7068
:103AE0007B685B6A5A1C7B685A627B685B8D9BB201
:103AF000013B9AB27B685A857B681B685A687B6871
:103B00001B6822F440725A607B68202283F83D20B3
:103B10007B6893F83E30DBB2402B0AD17B680022F1
:103B200083F83E207B6800221A637868FFF7A8FCC0
:103B300027E07B68002283F83E20FB68082B02D038
:103B4000FB68202B03D17B6800221A6302E07B68AC
:103B500012221A637868FFF753FC12E07B681B6837
:103B60001A697B685B6AD2B21A707B685B6A5A1CFE
:103B70007B685A627B685B8D9BB2013B9AB27B6823
:103B80005A8500BF1037BD4680BD80B483B000AFFA
:103B900078607B6893F83E30DBB2402B17D17B68AE
:103BA0001B6D002B09D17B685B6CDBB21A467B680E
:103BB0001B6802F0FE021A6167E07B685B6CDBB297
:103BC00043F00103DAB27B681B681A615DE07B6831
:103BD0001B69B3F5804F33D17B6893F83D30DBB27E
:103BE000212B09D17B685B6CDBB21A467B681B68B2
:103BF00002F0FE021A6108E07B685B6CDBB243F006
:103C00000103DAB27B681B681A617B685B6B002B6F
:103C100004D07B685B6BDB6B002B08D17B689B6BF4
:103C2000002B32D07B689B6BDB6B002B2DD07B682D
:103C30001B685A687B681B6842F400625A6024E083
:103C40007B681B6D002B0ED17B685B6C9BB2DB111C
:103C5000DBB203F00603DBB263F00F03DAB27B687A
:103C60001B681A6111E07B681B6D012B0DD17B680D
:103C70005B6C9BB2DB11DBB203F00603DBB263F0DB
:103C80000E03DAB27B681B681A6100BF0C37BD46B1
:103C90005DF8047B704780B483B000AF78607B68C8
:103CA0005B6CDAB27B681B681A617B685B6B002B0C
:103CB00004D07B685B6BDB6B002B08D17B689B6B54
:103CC000002B0CD07B689B6BDB6B002B07D07B68D9
:103CD0001B685A687B681B6842F400625A6000BF28
:103CE0000C37BD465DF8047B704780B491B000AFDF
:103CF00078607B6893F83E3087F83F307B68DB6AFA
:103D0000BB637B681B6B7B637B6893F83D30DBB2E6
:103D1000222B40F069817B681B6D002B0FD197F837
:103D20003F30402B0BD100233B637B681B685B69F2
:103D30003B637B681B689B693B633B6B60E17B6813
:103D40001B6D002B1DD17B681B69B3F5404F18D14B
:103D50000023FB627B681B685B69FB627B681B68F6
:103D60009B69FB62FB6A7B681B681A687B681B683F
:103D700042F480721A607B681B6D5A1C7B681A655E
:103D80003EE17B685B8D9BB2002B13D10023BB62AD
:103D90007B681B685B69BB627B681B689B69BB6255
:103DA000BB6A7B681B681A687B681B6842F40072F8
:103DB0001A6015E17B685B8D9BB2012B40F08A8015
:103DC000BB6B13F5803F37D17B681B681A687B6833
:103DD0001B6822F480621A607B681B685B6803F4CE
:103DE0000063B3F5006F13D17B681B681A687B68AA
:103DF0001B6822F480621A6000237B627B681B6868
:103E00005B697B627B681B689B697B627B6AE7E01E
:103E100000233B627B681B685B693B627B681B68B5
:103E20009B693B623B6A7B681B681A687B681B68FE
:103E300042F400721A60D3E0BB6B082B2ED0BB6B30
:103E4000202B2BD07B6B122B02D1BB6B012B25D1EE
:103E5000BB6B042B0ED0BB6B022B0BD0BB6B102BA0
:103E600008D07B681B681A687B681B6822F4806234
:103E70001A6007E07B681B681A687B681B6842F45D
:103E800080621A600023FB617B681B685B69FB61D1
:103E90007B681B689B69FB61FB69A1E07B681B6811
:103EA0001A687B681B6822F480621A600023BB6179
:103EB0007B681B685B69BB617B681B689B69BB6136
:103EC000BB697B681B681A687B681B6842F40072D8
:103ED0001A6085E07B685B8D9BB2022B4DD1BB6B7A
:103EE000042B16D0BB6B022B13D0BB6B102B10D046
:103EF0007B681B681A687B681B6822F480621A6002
:103F00007B681B681A687B681B6842F400621A6051
:103F100007E07B681B681A687B681B6842F4806254
:103F20001A607B681B685B6803F40063B3F5006F7D
:103F300017D1BB6B13F5803F0BD0BB6B012B08D0A7
:103F4000BB6B082B05D0BB6B102B02D0BB6B202B9F
:103F500007D17B681B685A687B681B6842F48052F3
:103F60005A6000237B617B681B685B697B617B68AF
:103F70001B689B697B617B6932E07B681B681A6800
:103F80007B681B6842F480621A607B681B685B6810
:103F900003F40063B3F5006F17D1BB6B13F5803FDB
:103FA0000BD0BB6B012B08D0BB6B082B05D0BB6BB8
:103FB000102B02D0BB6B202B07D17B681B685A6883
:103FC0007B681B6842F480525A6000233B617B6827
:103FD0001B685B693B617B681B689B693B613B6954
:103FE0007B6800221A650BE00023FB607B681B687E
:103FF0005B69FB607B681B689B69FB60FB68FFE794
:1040000000BF4437BD465DF8047B704780B584B07F
:1040100000AF78607B6893F83D30FB737B685B8D05
:104020009BB2002B2BD07B685B6A1A787B681B687D
:104030001A617B685B6A5A1C7B685A627B685B8D7D
:104040009BB2013B9AB27B685A857B685B8D9BB2C1
:10405000002B14D1FB7B292B11D17B681B685A687C
:104060007B681B6822F480625A607B6821221A6395
:104070007B68282283F83D207868FFF7CBF900BFE2
:104080001037BD4680BD80B483B000AF78607B68D8
:104090005B8D9BB2002B11D07B685B6A1A787B68C2
:1040A0001B681A617B685B6A5A1C7B685A627B6872
:1040B0005B8D9BB2013B9AB27B685A8500BF0C377F
:1040C000BD465DF8047B704780B584B000AF786072
:1040D0007B6893F83D30FB737B685B8D9BB2002B54
:1040E0002CD07B681B681A697B685B6AD2B21A7035
:1040F0007B685B6A5A1C7B685A627B685B8D9BB2EB
:10410000013B9AB27B685A857B685B8D9BB2002B22
:1041100014D1FB7B2A2B11D17B681B685A687B6802
:104120001B6822F480625A607B6822221A637B68D3
:10413000282283F83D207868FFF776F900BF103712
:10414000BD4680BD80B483B000AF78607B685B8D76
:104150009BB2002B12D07B681B681A697B685B6A74
:10416000D2B21A707B685B6A5A1C7B685A627B68A1
:104170005B8D9BB2013B9AB27B685A8500BF0C37BE
:10418000BD465DF8047B704780B584B000AF7860B1
:1041900039600023FB737B6893F83D30DBB203F09A
:1041A0002803282B25D17B681B685A687B681B680D
:1041B00022F480625A603B6803F00403002B01D1B3
:1041C0000123FB733B6803F08003002B03D17B6862
:1041D000DB68BB8102E07B689B69BB817B68002256
:1041E00083F83C20BA89FB7B19467868FFF726F9EB
:1041F0000EE00023BB607B681B685B69BB607B686B
:104200001B689B69BB60BB687B68002283F83C200D
:1042100000BF1037BD4680BD80B584B000AF786068
:104220007B6893F83D30FB737B681B685A687B683A
:104230001B6822F4E0625A600023BB607B681B6845
:104240005B69BB607B681B681A687B681B6842F00F
:1042500001021A60BB687B681B681A687B681B6870
:1042600022F480621A607B681B685B6803F4006359
:10427000B3F5006F72D1FB7B222B02D0FB7B2A2B84
:1042800035D17B689B6B1B685B689AB27B685A85EB
:104290007B685B8D9BB2002B05D07B681B6C43F069
:1042A00004027B681A647B681B685A687B681B6819
:1042B00022F400625A607B689B6B1846FEF7C6F9D1
:1042C0000346012B49D07B689B6B694A1A657B6862
:1042D0009B6B1846FEF70EF80346002B3DD07B681B
:1042E0009B6B1B6D7A68926B1046984735E07B6834
:1042F0005B6B1B685B689AB27B685A857B685B8DD9
:104300009BB2002B05D07B681B6C43F004027B68DA
:104310001A647B681B685A687B681B6822F4006219
:104320005A607B685B6B1846FEF790F90346012BD9
:1043300014D07B685B6B4E4A1A657B685B6B1846D2
:10434000FDF7D8FF0346002B08D07B685B6B1B6D25
:104350007A68526B1046984700E000BF7B685B8D1F
:104360009BB2002B3ED07B681B685B6903F00403A3
:10437000042B12D17B681B681A697B685B6AD2B216
:104380001A707B685B6A5A1C7B685A627B685B8D1B
:104390009BB2013B9AB27B685A857B681B685B695C
:1043A00003F04003402B12D17B681B681A697B68BD
:1043B0005B6AD2B21A707B685B6A5A1C7B685A626D
:1043C0007B685B8D9BB2013B9AB27B685A857B68A8
:1043D0005B8D9BB2002B05D07B681B6C43F0040205
:1043E0007B681A647B681B6C002B03D0786800F034
:1043F000B7F839E0FB7B2A2B09D17B6800221A63CE
:104400007B68282283F83D207868FFF70DF87B68E9
:1044100093F83D30DBB2282B11D17B68154ADA6264
:104420007B6800221A637B68202283F83D207B682A
:10443000002283F83E207868FFF70EF814E07B68CE
:104440001B6B222B02D0FB7B222B0DD17B68002221
:104450001A637B68202283F83D207B68002283F862
:104460003E207868FEF7E0FF00BF1037BD4680BDF4
:10447000F14800080000FFFF80B584B000AF78600D
:104480007B6893F83D30FB737B68DB6ABB60BB687D
:10449000082B02D0BB68202B29D1FB7B282B26D1EF
:1044A0007B682E4ADA627B681B685A687B681B68E7
:1044B00022F4E0625A607B681B686FF480625A6184
:1044C0007B681B681A687B681B6822F480621A602C
:1044D0007B6800221A637B68202283F83D207B687A
:1044E000002283F83E207868FEF7B6FF31E0FB7BC0
:1044F000212B29D17B68194ADA627B6821221A6351
:104500007B68202283F83D207B68002283F83E20D0
:104510007B681B685A687B681B6822F4E0625A60FB
:104520007B681B686FF480625A617B681B681A683D
:104530007B681B6822F480621A607868FEF754FC7E
:104540007868FEF767FF04E07B681B686FF48062A1
:104550005A6100BF1037BD4680BD00BF0000FFFF9D
:1045600080B584B000AF78607B6893F83D30FB7312
:104570007B6893F83E30BB73BB7B102B02D0BB7BB8
:10458000402B0AD1FB7B222B07D17B681B681A6862
:104590007B681B6822F400621A60FB7B03F028032F
:1045A000282B07D17B6800221A637B68282283F8B6
:1045B0003D2015E07B681B685B6803F40063B3F57E
:1045C000006F0AD0FB7B602B07D07B68202283F82A
:1045D0003D207B68002283F83E207B6800221A631E
:1045E0007B681B685B6803F40063B3F5006F62D1FE
:1045F0007B681B685A687B681B6822F400625A60FB
:104600007B685B6B93F83530DBB2012B20D07B6885
:104610005B6B6A4A1A657B685B6B1846FDF76AFE3E
:104620000346002B00F089807B681B681A687B6852
:104630001B6822F001021A607B68202283F83D206B
:104640007B685B6B1B6D7A68526B1046984774E011
:104650007B689B6B594A1A657B689B6B1846FDF714
:1046600049FE0346002B68D07B681B685B6903F03A
:104670004003402B0BD17B681B681A697B685B6A1F
:10468000D2B21A707B685B6A5A1C7B685A627B687C
:104690001B681A687B681B6822F001021A607B683D
:1046A000202283F83D207B689B6B1B6D7A68926BA0
:1046B0001046984741E07B6893F83D30DBB2602BB1
:1046C00025D17B68202283F83D207B6800221A6474
:1046D0007B681B685B6903F04003402B0BD17B6850
:1046E0001B681A697B685B6AD2B21A707B685B6A66
:1046F0005A1C7B685A627B681B681A687B681B6857
:1047000022F001021A607868FEF7CEFE15E07B68A1
:104710001B685B6903F04003402B0BD17B681B686F
:104720001A697B685B6AD2B21A707B685B6A5A1C32
:104730007B685A627868FEF7ADFE7B681B6CBB60D5
:10474000BB6803F00103002B0ED1BB6803F002032A
:10475000002B09D1BB6803F00403002B04D1BB6814
:1047600003F00803002B07D07B681B685A687B683E
:104770001B6822F4E0625A607B6893F83D30FB735B
:104780007B681B6C03F00403042B13D1FB7B282BE9
:1047900010D17B680A4ADA627B6800221A637B6860
:1047A000202283F83D207B68002283F83E20786831
:1047B000FEF752FE00BF1037BD4680BDF14800082D
:1047C0000000FFFF80B588B002AFF86008461146D0
:1047D0001A4603467B810B463B811346FB80FB68F0
:1047E0001B681A68FB681B6842F480721A607B6A57
:1047F00000933B6A00224FF00111F86800F020F9A5
:104800000346002B0DD0FB681B681B6803F4807304
:10481000B3F5807F03D1FB684FF400721A64032361
:104820005FE07B89DBB21A46FB681B6802F0FE0280
:104830001A617B6A3A6A2D49F86800F07BF90346F1
:10484000002B01D001234CE000237B61FB681B6837
:104850005B697B61FB681B689B697B617B697A6A2A
:10486000396AF86800F006FA0346002B0DD0FB68A1
:104870001B6C042B07D1FB681B681A68FB681B685C
:1048800042F400721A6001232BE0FB88012B05D152
:104890003B89DAB2FB681B681A6121E03B891B0A7D
:1048A0009BB2DAB2FB681B681A617A6A396AF868E7
:1048B00000F0E0F90346002B0DD0FB681B6C042BC5
:1048C00007D1FB681B681A68FB681B6842F400721A
:1048D0001A60012305E03B89DAB2FB681B681A61A4
:1048E000002318461837BD4680BD00BF02000100F6
:1048F00080B586B000AF78600023FB607B689B6B5F
:104900007B617B6993F83D30FB744B4B1B68DB0884
:104910004A4AA2FB03231A0A13469B001344DA00F7
:10492000D31AFB60FB68002B06D17B691B6C43F03C
:1049300020027B691A640AE0FB68013BFB607B692B
:104940001B681B6803F40073B3F5007FEAD07B6932
:104950005B6B002B03D07B695B6B0022DA637B69A6
:104960009B6B002B03D07B699B6B0022DA637B6916
:104970001B681A687B691B6822F480621A607B6975
:1049800000225A857B695B6B002B03D07B695B6BD4
:1049900000221A657B699B6B002B03D07B699B6BA4
:1049A00000221A657B691B681A687B691B6822F004
:1049B00001021A607B6993F83D30DBB2602B0ED1A7
:1049C0007B69202283F83D207B69002283F83E200A
:1049D0007B6900221A647869FEF766FD27E0FB7C9C
:1049E00003F02803282B17D17B691B681A687B69A1
:1049F0001B6842F001021A607B691B681A687B69B8
:104A00001B6842F480621A607B6900221A637B692A
:104A1000282283F83D2007E07B69202283F83D208F
:104A20007B69002283F83E207869FEF733FD00BFE2
:104A30001837BD4680BD00BF0000002089B5F814BE
:104A400080B584B000AFF860B9603B601346FB717D
:104A500048E03B68B3F1FF3F44D0FCF7DDFC024681
:104A6000BB69D31A3A689A4202D33B68002B39D10A
:104A7000BB681B0CDBB2012B0DD1FB681B685B69AB
:104A8000DA43BB6813409BB2002B0CBF0123002309
:104A9000DBB21A460CE0FB681B689B69DA43BB6813
:104AA00013409BB2002B0CBF01230023DBB21A463C
:104AB000FB799A4216D1FB6800221A63FB68202218
:104AC00083F83D20FB68002283F83E20FB681B6CC6
:104AD00043F02002FB681A64FB68002283F83C2044
:104AE000012323E0BB681B0CDBB2012B0DD1FB685B
:104AF0001B685B69DA43BB6813409BB2002B0CBF99
:104B000001230023DBB21A460CE0FB681B689B699B
:104B1000DA43BB6813409BB2002B0CBF0123002378
:104B2000DBB21A46FB799A4293D00023184610371D
:104B3000BD4680BD80B584B000AFF860B9607A60D2
:104B40003B6071E0FB681B685B6903F48063B3F54D
:104B5000806F23D1FB681B681A68FB681B6842F4EE
:104B600000721A60FB681B686FF480625A61FB6810
:104B700000221A63FB68202283F83D20FB68002294
:104B800083F83E20FB681B6C43F00402FB681A6448
:104B9000FB68002283F83C20012367E07B68B3F1C7
:104BA000FF3F41D0FCF738FC02463B68D31A7A68D5
:104BB0009A4202D37B68002B36D1BB681B0CDBB258
:104BC000012B0CD1FB681B685B69DA43BB6813409F
:104BD0009BB2002B14BF01230023DBB20BE0FB6868
:104BE0001B689B69DA43BB6813409BB2002B14BF60
:104BF00001230023DBB2002B16D0FB6800221A63CE
:104C0000FB68202283F83D20FB68002283F83E20C9
:104C1000FB681B6C43F02002FB681A64FB680022EF
:104C200083F83C20012321E0BB681B0CDBB2012B85
:104C30000CD1FB681B685B69DA43BB6813409BB20D
:104C4000002B14BF01230023DBB20BE0FB681B68C1
:104C50009B69DA43BB6813409BB2002B14BF01234E
:104C60000023DBB2002B7FF46DAF00231846103712
:104C7000BD4680BD80B584B000AFF860B9607A6091
:104C800034E0F86800F0B8F80346002B01D00123A7
:104C900034E0BB68B3F1FF3F28D0FCF7BDFB024610
:104CA0007B68D31ABA689A4202D3BB68002B1DD125
:104CB000FB681B685B6903F08003802B16D0FB68E0
:104CC00000221A63FB68202283F83D20FB68002243
:104CD00083F83E20FB681B6C43F02002FB681A64DB
:104CE000FB68002283F83C20012307E0FB681B6877
:104CF0005B6903F08003802BC3D100231846103773
:104D0000BD4680BD80B584B000AFF860B9607A6000
:104D100034E0F86800F070F80346002B01D001235E
:104D200034E0BB68B3F1FF3F28D0FCF775FB0246C7
:104D30007B68D31ABA689A4202D3BB68002B1DD194
:104D4000FB681B685B6903F00403042B16D0FB6847
:104D500000221A63FB68202283F83D20FB680022B2
:104D600083F83E20FB681B6C43F02002FB681A644A
:104D7000FB68002283F83C20012307E0FB681B68E6
:104D80005B6903F00403042BC3D1002318461037DA
:104D9000BD4680BD80B485B000AF78600023FB6065
:104DA000134B1B68DB08134AA2FB03231A0A1346A2
:104DB0009B001344FB60FB68013BFB60FB68002B1E
:104DC00007D17B681B6C43F020027B681A640123C7
:104DD00008E07B681B681B6803F40073B3F5007F71
:104DE000E9D0002318461437BD465DF8047B7047B0
:104DF0000000002089B5F81480B483B000AF78605B
:104E00007B681B685B6903F48063B3F5806F1BD11B
:104E10007B681B686FF480625A617B6800221A63AA
:104E20007B68202283F83D207B68002283F83E20A7
:104E30007B681B6C43F004027B681A647B68002269
:104E400083F83C20012300E0002318460C37BD46C0
:104E50005DF8047B704780B483B000AF78607B68F6
:104E6000DB6AB3F52A0F03D17B680122DA6207E01F
:104E70007B68DB6AB3F12A4F02D17B680822DA62D1
:104E800000BF0C37BD465DF8047B704780B586B027
:104E900000AF78607B68002B01D1012367E27B685B
:104EA0001B6803F00103002B75D0884B9B6803F04F
:104EB0000C03042B0CD0854B9B6803F00C03082BD0
:104EC00012D1824B5B6803F48003B3F5800F0BD1E2
:104ED0007E4B1B6803F40033002B5BD07B685B6860
:104EE000002B57D1012342E27B685B68B3F5803F1A
:104EF00006D1764B1B68754A43F4803313601DE07E
:104F00007B685B68B3F5A02F0CD1704B1B686F4AB0
:104F100043F4802313606D4B1B686C4A43F4803369
:104F200013600BE0694B1B68684A23F480331360FD
:104F3000664B1B68654A23F4802313607B685B68BB
:104F4000002B13D0FCF768FA386108E0FCF764FA2C
:104F500002463B69D31A642B01D9032307E25B4B5A
:104F60001B6803F40033002BF0D014E0FCF754FA74
:104F7000386108E0FCF750FA02463B69D31A642B0B
:104F800001D90323F3E1514B1B6803F40033002BD9
:104F9000F0D100E000BF7B681B6803F00203002B28
:104FA00063D04A4B9B6803F00C03002B0BD0474B9C
:104FB0009B6803F00C03082B1CD1444B5B6803F483
:104FC0008003002B16D1414B1B6803F00203002B1A
:104FD00005D07B68DB68012B01D00123C7E13B4B87
:104FE0001B6823F0F8027B681B69DB003749134319
:104FF0000B603AE07B68DB68002B20D0344B012249
:105000001A60FCF709FA386108E0FCF705FA024675
:105010003B69D31A022B01D90323A8E12B4B1B6850
:1050200003F00203002BF0D0284B1B6823F0F8029A
:105030007B681B69DB00254913430B6015E0244B9B
:1050400000221A60FCF7E8F9386108E0FCF7E4F99F
:1050500002463B69D31A022B01D9032387E11B4B7C
:105060001B6803F00203002BF0D17B681B6803F080
:105070000803002B36D07B685B69002B16D0154BDC
:1050800001221A60FCF7C8F9386108E0FCF7C4F99E
:1050900002463B69D31A022B01D9032367E10B4B6C
:1050A0005B6F03F00203002BF0D01BE0094B0022E2
:1050B0001A60FCF7B1F938610EE0FCF7ADF9024671
:1050C0003B69D31A022B07D9032350E10038024071
:1050D00000004742800E4742884B5B6F03F002039B
:1050E000002BEAD17B681B6803F00403002B00F05F
:1050F00097800023FB75814B1B6C03F08053002BC2
:105100000FD10023BB607D4B1B6C7C4A43F0805366
:1051100013647A4B1B6C03F08053BB60BB680123A4
:10512000FB75774B1B6803F48073002B18D1744B0D
:105130001B68734A43F480731360FCF76DF93861A0
:1051400008E0FCF769F902463B69D31A022B01D942
:1051500003230CE16A4B1B6803F48073002BF0D02F
:105160007B689B68012B06D1644B1B6F634A43F03D
:10517000010313671CE07B689B68052B0CD15F4B18
:105180001B6F5E4A43F0040313675C4B1B6F5B4A63
:1051900043F0010313670BE0584B1B6F574A23F092
:1051A00001031367554B1B6F544A23F00403136725
:1051B0007B689B68002B15D0FCF72EF938610AE05C
:1051C000FCF72AF902463B69D31A41F2883293422E
:1051D00001D90323CBE0494B1B6F03F00203002BE3
:1051E000EED014E0FCF718F938610AE0FCF714F986
:1051F00002463B69D31A41F28832934201D9032314
:10520000B5E03E4B1B6F03F00203002BEED1FB7D9C
:10521000012B05D1394B1B6C384A23F080531364A2
:105220007B689B69002B00F0A180344B9B6803F0E6
:105230000C03082B5CD07B689B69022B41D1314B5E
:1052400000221A60FCF7E8F8386108E0FCF7E4F89F
:1052500002463B69D31A022B01D9032387E0274B6F
:105260001B6803F00073002BF0D17B68DA697B6860
:105270001B6A1A437B685B6A9B011A437B689B6AC3
:105280005B08013B1B041A437B68DB6A1B061B4956
:1052900013434B601B4B01221A60FCF7BDF83861C9
:1052A00008E0FCF7B9F802463B69D31A022B01D992
:1052B00003235CE0114B1B6803F00073002BF0D05C
:1052C00054E0104B00221A60FCF7A6F8386108E0A1
:1052D000FCF7A2F802463B69D31A022B01D903233B
:1052E00045E0064B1B6803F00073002BF0D13DE056
:1052F0007B689B69012B07D1012338E0003802400D
:1053000000700040600047421B4B5B68FB607B689D
:105310009B69012B28D0FB6803F480027B68DB6962
:105320009A4221D1FB6803F03F027B681B6A9A42D4
:105330001AD1FA6847F6C07313407A68526A92012C
:10534000934211D1FB6803F440327B689B6A5B088F
:10535000013B1B049A4207D1FB6803F070627B6833
:10536000DB6A1B069A4201D0012300E000231846A5
:105370001837BD4680BD00BF0038024080B584B0FC
:1053800000AF786039607B68002B01D10123CCE04D
:10539000684B1B6803F007033A689A420CD9654BC7
:1053A0003A68D2B21A70634B1B6803F007033A687D
:1053B0009A4201D00123B8E07B681B6803F0020326
:1053C000002B20D07B681B6803F00403002B05D062
:1053D000594B9B68584A43F4E05393607B681B68C1
:1053E00003F00803002B05D0534B9B68524A43F44B
:1053F00060439360504B9B6823F0F0027B689B688E
:105400004D4913438B607B681B6803F00103002B3D
:1054100044D07B685B68012B07D1474B1B6803F4C2
:105420000033002B19D101237FE07B685B68022BDE
:1054300003D07B685B68032B07D13F4B1B6803F0ED
:105440000073002B09D101236FE03B4B1B6803F075
:105450000203002B01D1012367E0374B9B6823F047
:1054600003027B685B68344913438B60FBF7D4FF0E
:10547000F8600AE0FBF7D0FF0246FB68D31A41F25E
:105480008832934201D903234FE02B4B9B6803F0F2
:105490000C027B685B689B009A42EBD1254B1B6832
:1054A00003F007033A689A420CD2224B3A68D2B210
:1054B0001A70204B1B6803F007033A689A4201D028
:1054C000012332E07B681B6803F00403002B08D043
:1054D000194B9B6823F4E0527B68DB681649134341
:1054E0008B607B681B6803F00803002B09D0124B0C
:1054F0009B6823F460427B681B69DB000E49134301
:105500008B6000F021F802460B4B9B681B0903F0EF
:105510000F030A49CB5C22FA03F3094A1360094BD3
:105520001B681846FBF734FF002318461037BD46AA
:1055300080BD00BF003C0240003802409477000864
:1055400000000020040000202DE9B04F90B000AF13
:1055500000237B630023FB6300233B630023BB63C7
:10556000594B9B6803F00C03082B0DD0082B00F25D
:10557000A180002B02D0042B03D09BE0534BBB63D4
:105580009BE0534BBB6398E04F4B5B6803F03F03DA
:105590007B634D4B5B6803F48003002B28D04A4BA0
:1055A0005B689B0900223B627A623B6AC3F3080096
:1055B0000021474B03FB01F2002300FB03F31344DC
:1055C000434AA0FB0212FA620A46BA62FA6A13441C
:1055D000FB627B6B0022BB61FA61D7E90623D7E946
:1055E0000A01FAF74DFE02460B461346FB6353E0F1
:1055F000354B5B689B0900223B617A613B69C3F3D1
:10560000080A4FF0000B52465B464FF000004FF087
:105610000001590141EAD261500102460B46B2EB4A
:105620000A0863EB0B094FF000024FF000034FEA4A
:10563000891343EA98634FEA8812B2EB080463EBDC
:1056400009054FF000024FF00003EB0043EA5473EA
:10565000E20014461D4614EB0A033B6045EB0B03C6
:105660007B604FF000024FF00003D7E90045294668
:105670008B02214643EA915321468A02104619467D
:105680007B6B0022BB60FA60D7E90223FAF7F8FDD2
:1056900002460B461346FB630B4B5B681B0C03F087
:1056A000030301335B003B63FA6B3B6BB2FBF3F329
:1056B000BB6302E0054BBB6300BFBB6B18464037C2
:1056C000BD46BDE8B08F00BF003802400024F400A2
:1056D00040787D0180B400AF034B1B681846BD467F
:1056E0005DF8047B704700BF0000002080B500AF6C
:1056F000FFF7F0FF0246054B9B689B0A03F0070388
:105700000349CB5C22FA03F3184680BD00380240FF
:10571000A477000880B582B000AF78607B68002B6A
:1057200001D1012341E07B6893F83D30DBB2002BCF
:1057300006D17B68002283F83C207868FBF780FD67
:105740007B68022283F83D207B681A687B680433FB
:105750001946104600F0A0F97B68012283F8462024
:105760007B68012283F83E207B68012283F83F207A
:105770007B68012283F840207B68012283F8412066
:105780007B68012283F842207B68012283F8432052
:105790007B68012283F844207B68012283F845203E
:1057A0007B68012283F83D20002318460837BD4658
:1057B00080BD000080B584B000AF786039603B6880
:1057C000002B09D17B6893F83E30DBB2012B14BF6C
:1057D00001230023DBB222E03B68042B09D17B6864
:1057E00093F83F30DBB2012B14BF01230023DBB25F
:1057F00015E03B68082B09D17B6893F84030DBB299
:10580000012B14BF01230023DBB208E07B6893F86F
:105810004130DBB2012B14BF01230023DBB2002B8C
:1058200001D0012368E03B68002B04D17B68022291
:1058300083F83E2013E03B68042B04D17B680222EE
:1058400083F83F200BE03B68082B04D17B680222E1
:1058500083F8402003E07B68022283F841207B68C4
:105860001B6801223968184600F02EFB7B681B6814
:10587000234A934207D17B681B685A6C7B681B687C
:1058800042F400425A647B681B681D4A934218D058
:105890007B681B68B3F1804F13D07B681B68194A83
:1058A00093420ED07B681B68174A934209D07B68ED
:1058B0001B68164A934204D07B681B68144A9342C3
:1058C00011D17B681B689B6803F00703FB60FB68D2
:1058D000062B10D07B681B681A687B681B6842F037
:1058E00001021A6007E07B681B681A687B681B6806
:1058F00042F001021A60002318461037BD4680BDF1
:10590000000001400004004000080040000C00407E
:105910000040014080B586B000AFF860B9607A60A1
:105920000023FB75FB6893F83C30012B01D1022367
:10593000AEE0FB68012283F83C207B680C2B00F270
:105940009F8001A252F823F07D590008815A000877
:10595000815A0008815A0008BD590008815A000880
:10596000815A0008815A0008FF590008815A00082E
:10597000815A0008815A00083F5A0008FB681B68DA
:10598000B968184600F014F9FB681B689A69FB684F
:105990001B6842F008029A61FB681B689A69FB6801
:1059A0001B6822F004029A61FB681B689969BB6856
:1059B0001A69FB681B680A439A6164E0FB681B680C
:1059C000B968184600F05AF9FB681B689A69FB68C9
:1059D0001B6842F400629A61FB681B689A69FB6865
:1059E0001B6822F480629A61FB681B689969BB6836
:1059F0001B691A02FB681B680A439A6143E0FB6853
:105A00001B68B968184600F0A5F9FB681B68DA69DD
:105A1000FB681B6842F00802DA61FB681B68DA6900
:105A2000FB681B6822F00402DA61FB681B68D96915
:105A3000BB681A69FB681B680A43DA6123E0FB68EC
:105A40001B68B968184600F0EFF9FB681B68DA6953
:105A5000FB681B6842F40062DA61FB681B68DA6964
:105A6000FB681B6822F48062DA61FB681B68D969F5
:105A7000BB681B691A02FB681B680A43DA6102E013
:105A80000123FB7500BFFB68002283F83C20FB7DEF
:105A900018461837BD4680BD80B485B000AF786029
:105AA00039607B681B68FB607B683A4A93420FD081
:105AB0007B68B3F1804F0BD07B68374A934207D0A5
:105AC0007B68364A934203D07B68354A934208D1BB
:105AD000FB6823F07003FB603B685B68FA68134364
